:020000040000FA
:020000000A28CC
:10000800FE00030EF8000A08F900292A0B28E52249
:10001800B400E622B500E722B600DB22F000DC22BD
:10002800F100DD22F200DE22F300DF22F400E022FC
:10003800F500B701B801830121283030831203137A
:10004800A8002808B300AB01AC018501831603138F
:10005800850127308600193099001815831203137B
:1000680098178316031398168B170B17831203130D
:1000780018169812831603130C128C168113011785
:100088000B16462831308312031334063504031D3A
:100098004E284F2851280515682832303406350473
:1000A800031D572858285A28051468283330340661
:1000B8003504031D60286128632885146828051005
:1000C8008510051168286828861A6B286C28FB2873
:1000D80037083804031D71287228FB28AD01AE01CA
:1000E8002E08803AFF0088307F02031D7D280030EB
:1000F8002D02031C802881288328C228C228831245
:100108000313AF01B0013008803AFF0080307F024E
:10011800031D902832302F02031C93289428962818
:10012800AC28AC28013083120313AF070318B00AB8
:100138000030B0073008803AFF0080307F02031D8E
:10014800A72832302F02031CAA28AB289628AC28EF
:10015800013083120313AD070318AE0A0030AE074F
:100168002E08803AFF0088307F02031DBD2800302A
:100178002D02031CC028C1288328C22831308312CD
:1001880003133606031DC928CA28D3280130B7002F
:100198000030B8003330B4000030B500F2283230F7
:1001A8003606031DD828D928E2280130B7000030C8
:1001B800B8003230B4000030B500F22833303606CB
:1001C800031DE728E828F2280130B7000030B800FE
:1001D8003130B4000030B500F228F2283408A80005
:1001E8002808B3003030A8002808B600C82937030B
:1001F8003804031D002901297E29861A04290529A6
:100208007E290618082909297E29B101B201262963
:10021800063083120313AA001330A900AD30A800DA
:10022800A80B1429A90B1429AA0B1429000083125E
:1002380003133108013EB10032080318013E003EA5
:10024800B2002629861A29292A29392906182D298A
:100258002E29392900303202033003193102031CD8
:10026800362937290C293929392900303202023038
:1002780003193102031C41294229C829850130305C
:10028800A0000030A1007A22303083120313B4009A
:100298000030B5008615023083120313AA004530DA
:1002A800A900A930A800A80B5729A90B5729AA0B00
:1002B800572900008312031386113408A800280860
:1002C800B3003030A8002808B600063083120313A4
:1002D800AA001330A900AD30A800A80B7129A90BFA
:1002E8007129AA0B7129000083120313B701B80101
:1002F800C829C82931303302031C83298429C82915
:1003080034303302031889298A29C82903302C027A
:10031800E83003192B020318922993299A290130EE
:10032800AB070318AC0A0030AC07C129AB01AC011C
:1003380031303306031DA129A229A429D022BA29C4
:100348003230831203133306031DAB29AC29AE29BF
:10035800C522BA293330831203133306031DB52986
:10036800B629BA29BA22BA29BA29BA293030831249
:100378000313A8002808B300C1293030A8002808B2
:10038800B600C829C829C829073083120313A90051
:100398007C30A800A80BCE29A90BCE29D329462842
:1003A80046280A2883120313A001A1012108803AD4
:1003B800FF0088307F02031DE32900302002031C60
:1003C800E629E729E929282A282A83120313A20102
:1003D800A3012308803AFF0080307F02031DF6291D
:1003E8001E302202031CF929FA29FC29122A122A92
:1003F800013083120313A2070318A30A0030A307CE
:100408002308803AFF0080307F02031D0D2A1E302A
:100418002202031C102A112AFC29122A01308312F5
:100428000313A0070318A10A0030A1072108803A86
:10043800FF0088307F02031D232A00302002031C9E
:10044800262A272AE929282A0800831203138C1E42
:100458002E2A2F2A522A981C322A332A362A181270
:100468001816362A30301A02031C3B2A3C2A492A1D
:1004780034301A020318412A422A492A1A08F60077
:10048800F7017608B4007708B5000730F7007D302B
:10049800F600F60B4D2AF70B4D2A522A8B1C552ACB
:1004A800562A732A8312031337083804031D5D2A5A
:1004B8005E2A712A861A612A622A712A3608013E42
:1004C800F6007608B6000730F7007D30F600F60B28
:1004D8006B2AF70B6B2A712A712A8B10732A7908F9
:1004E8008A00780E8300FE0E7E0E09007B2A831296
:1004F80003130C1E802A812A7B2A822A200899004D
:10050800073083120313A3007C30A200A20B8A2AAF
:10051800A30B8A2A8F2A902A831203130C1E952A6A
:10052800962A902A972A0D309900073083120313D0
:10053800A3007C30A200A20B9F2AA30B9F2AA42A07
:10054800A52A831203130C1EAA2AAB2AA52AAC2AB1
:100558000A309900073083120313A3007C30A200ED
:10056800A20BB42AA30BB42AB92A080083120313D6
:1005780085143330A0000030A1007A22D621E12270
:1005880008008312031305143230A0000030A100C4
:100598007A22D621E122080083120313051531308F
:1005A800A0000030A1007A22D621E12208004834B8
:1005B80065346C346C346F34003483120313850152
:0805C800080030340034303427
:02400E0010FFA1
:00000001FF
